:020000040800F2
:10000000780600205D01000865010008670100080E
:10001000690100086B0100086D0100080000000084
:100020000000000000000000000000006F01000858
:10003000710100080000000073010008750100084C
:100040007701000877010008770100080000000030
:100050000000000077010008770100087701000820
:100060007701000800000000770100087701000810
:100070007701000800000000770100087701000800
:1000800077010008770100080000000077010008F0
:1000900077010008000000000000000000000000E0
:1000A00000000000000000000000000077010008D0
:1000B000770100081902000877010008770100089D
:1000C00000F002F800F03AF80AA090E8000C824430
:1000D0008344AAF10107DA4501D100F02FF8AFF20D
:1000E000090EBAE80F0013F0010F18BFFB1A43F016
:1000F00001031847D8050000F8050000103A24BF96
:1001000078C878C1FAD8520724BF30C830C144BF7C
:1001100004680C60704700000023002400250026BE
:10012000103A28BF78C1FBD8520728BF30C148BF5A
:100130000B6070471FB51FBD10B510BD00F031F842
:100140001146FFF7F7FF00F0D7F900F04FF803B4BE
:10015000FFF7F2FF03BC00F057F8000009488047A2
:1001600009480047FEE7FEE7FEE7FEE7FEE7FEE799
:10017000FEE7FEE7FEE7FEE704480549054A064BB1
:100180007047000045040008C10000087800002006
:10019000780600207802002078020020704770471F
:1001A0007047754600F02CF8AE4605006946534688
:1001B00020F00700854618B020B5FFF7DDFFBDE849
:1001C00020404FF000064FF000074FF000084FF0BE
:1001D000000B21F00701AC46ACE8C009ACE8C0094F
:1001E000ACE8C009ACE8C0098D46704710B50446BC
:1001F000AFF300802046BDE81040FFF7A8BF000025
:10020000004870471800002001491820ABBEFEE7E7
:1002100026000200704700000948006818B9012054
:100220000749086002E0002005490860002000E05E
:10023000401C04498842FBDB0020034908607047EA
:10024000000000208096980080E200E010B50024B5
:100250001648006820F4806014490860002000E01F
:10026000401C3228FCDB1148006840F480600F49D4
:100270000860002000E0401CB0F5FA7FFBDB0C4872
:10028000046800BF002000F02BF800F09000002868
:10029000F8D100BF012000F023F800F09000002802
:1002A000F8D1012000F006F810BD000000800C40DD
:1002B0000000205010B5044644B13F21002000F05A
:1002C000E1F83F21012000F0DDF807E03E210020A9
:1002D00000F0D8F83E21012000F0D4F810BD000055
:1002E000014659B10C48006840F020000A4A1060ED
:1002F0001046006820F0100010600AE00648006810
:1003000040F01000044A10601046006820F0200001
:10031000106002480068704700800C4000001050D8
:100320000F4A126842F400620D4B1A6051B11A462E
:10033000126842F020021A601A46126822F0100277
:100340001A600AE0064A126842F01002044B1A6072
:100350001A46126822F020021A60024A10607047A2
:1003600000800C400000105830B504460D463DB1E9
:1003700004F03F0000F14001012000F083F806E0A6
:1003800004F03F0000F14001002000F07BF830BD98
:1003900070B504460D4604F0070000F1B80625B11B
:1003A0003146012000F06EF803E03146002000F0F5
:1003B00069F870BD30B5204CE46804F00204022CEA
:1003C00001D11E4800E01D481B4CE46804F0010404
:1003D00004B140080146184CE46804F00404042CFD
:1003E00005D1154C6468C4F30324631C5943124CB3
:1003F000E468C4F3012424B1012C06D0022C13D1EB
:100400000DE00E4C0E4D2C6013E00B4CE468C4F371
:100410000314641CB1FBF4F2094C226009E04FF4B0
:100420000044074D2C6004E049F64044044D2C6024
:1004300000BF00BF30BD00000000024000127A0083
:100440001400002000B50D480D49C8610846C06879
:100450000020C86008464068002048600846806860
:10046000002088600846006900200861084640694D
:1004700000204861FFF79EFF00BD0000100000084B
:100480000000024058B10D4A126842F020020B4BA6
:100490001A601A46126822F010021A600AE0074A2F
:1004A000126842F01002054B1A601A46126822F0D8
:1004B00020021A60024A11607047000000800C4060
:1004C0000000105070B5002412E000250DE0214618
:1004D0002846FFF75DFF002604E021460020FFF7D5
:1004E0001FFF761C402EF8DB6D1C082DEFDB641C13
:1004F000022CEADB70BD00004FF0FF306849C86194
:100500006848406D4FF20A010843664948656648ED
:10051000806845F255510843634988600846C068C1
:1005200040F0FF00C860084680694FF6FF7108433D
:100530005D4988615D48806844F2100108435B4969
:1005400088600846C06840F08400C860084680693A
:100550004CF230010843554988610846406840F034
:10056000840048605248806840F4800050498860A8
:100570000846C06840F44360C860084680694D4939
:1005800008434B4988610846406840F4436048602E
:100590004948406840F480604749486008468068A0
:1005A00040F4801088600846C06840F48060C860ED
:1005B0000846406920F4806048610846806940F43C
:1005C000401088613948806840F000703749886081
:1005D0000846C06840F48050C8600846406920F46E
:1005E000805048610846C06940F48050C861FFF7F8
:1005F0002DFE00210846FFF7CBFE00210846FFF73D
:10060000B3FEFFF75FFF002445E0002540E02146F0
:100610002846FFF7BDFE21460020FFF7A5FE002675
:1006200033E0002026E006EB8411244A1160082103
:1006300001FB0501224A1160204A116801EBD172C9
:100640001F4B1B68B3EB620F06DA1E4909681E4A8E
:10065000126811441B4A11601B490968802903D1A3
:100660000121194A116004E0174909684900164A36
:100670001160401C0828D6DB214612480068FFF7AD
:100680004FFE00200F490860761C402EC9DB6D1C10
:10069000082DBCDB641C022CB7DB00BFFEE70000AA
:1006A0000000024000000F4000800A4000800B4024
:1006B00000800C40000FF00000000C4004000020FF
:1006C000080000200C00002010000020EC060008AC
:1006D0000000002018000000FC00000804070008CB
:1006E000180000206006000018010008000000004B
:1006F00000000000000000000000000001000000F9
:0407000000127A0069
:040000050800015D91
:00000001FF
